:100000000C9462000C948A000C948A000C948A0070
:100010000C948A000C948A000C948A000C948A0038
:100020000C948A000C948A000C948A000C94860428
:100030000C948A000C948A000C948A000C948A0018
:100040000C94E4030C948A000C9454040C942E0435
:100050000C948A000C948A000C948A000C948A00F8
:100060000C948A000C948A000000000023002600F3
:10007000290000000000240027002A0000000000E2
:10008000250028002B0004040404040404040202D4
:100090000202020203030303030301020408102007
:1000A0004080010204081020010204081020000012
:1000B0000008000201000003040700000000000027
:1000C00000008C0511241FBECFEFD8E0DEBFCDBFEE
:1000D00011E0A0E0B1E0E2ECF2E102C005900D9287
:1000E000A234B107D9F722E0A2E4B1E001C01D9229
:1000F000A731B207E1F710E0C2E6D0E004C02197D3
:10010000FE010E945409C136D107C9F70E94EA05D1
:100110000C945F090C940000CF92DF92EF92FF9253
:10012000DC01A03282E0B8070CF03EC0B7FD06C08B
:10013000A53BB1052CF0A4EBB0E002C0A0E0B0E01C
:100140008091150228E830E06901C81AD10887FDBE
:10015000D394CC0CDD1CCC0CDD1C0D2C000CEE085B
:10016000FF088091160228E532E0281B310987FD3F
:100170003395220F331F220F331FA901330F660B54
:10018000770B9A01AB012C193D094E095F090E94BA
:10019000D90724EB30E040E050E00E94AF07C20EE8
:1001A000D31EE41EF51ED601909114029C3098F5E2
:1001B0008091150248E850E0481B510987FD53958E
:1001C000440F551F440F551FA417B5078CF080919D
:1001D000160228E532E0281B310987FD3395220FEE
:1001E000331F220F331FAD012A173B070CF4A9015F
:1001F00042505109440F551F2FB7F894892F90E0B2
:10020000FC01EE0FFF1F8E0F9F1FFC01E151FE4FFF
:10021000528341832FBFFF90EF90DF90CF900895DE
:1002200090E0FC01E255FF4F3491FC01E656FF4F90
:100230002491FC01EA57FF4FE491EE2309F43BC0FF
:10024000332339F1333091F038F43130A9F03230C2
:1002500001F584B58F7D12C0373091F03830A1F0B0
:100260003430B9F4809180008F7D03C0809180008C
:100270008F77809380000DC084B58F7784BD09C0CF
:100280008091B0008F7703C08091B0008F7D809304
:10029000B000F0E0EE0FFF1FE458FF4FA591B491BE
:1002A0008FB7F894EC91611103C020952E2301C003
:1002B0002E2B2C938FBF0895CF93DF9390E0FC01FA
:1002C000E656FF4F2491FC01EA57FF4F84918823A3
:1002D00061F190E0880F991FFC01EE58FF4FC59126
:1002E000D491FC01E458FF4FA591B491611109C06C
:1002F0009FB7F8948881209582238883EC912E23E0
:100300000BC0623061F49FB7F8943881822F8095DA
:1003100083238883EC912E2B2C939FBF06C08FB72D
:10032000F894E8812E2B28838FBFDF91CF91089519
:100330001F93CF93DF93182FEB0161E00E945C01C4
:10034000209711F460E004C0CF3FD10539F461E09B
:10035000812FDF91CF911F910C941001E12FF0E0DC
:10036000E255FF4FE491E330F9F048F4E130B9F0A1
:10037000E230A1F584B5806284BDC8BD34C0E730E9
:10038000E9F0E83019F1E43049F5809180008062AD
:1003900080938000D0938B00C0938A0024C084B5E2
:1003A000806884BDC7BD1FC0809180008068809335
:1003B0008000D0938900C093880015C08091B00060
:1003C00080688093B000C093B3000DC08091B000EE
:1003D00080628093B000C093B40005C0C038D105DE
:1003E0000CF0B5CFAFCFDF91CF911F9108953FB7FC
:1003F000F89480914E0190914F01A0915001B091DD
:10040000510126B5A89B05C02F3F19F00196A11DEB
:10041000B11D3FBFBA2FA92F982F8827820F911D9A
:10042000A11DB11DBC01CD0142E0660F771F881FE1
:10043000991F4A95D1F708958F929F92AF92BF92DC
:10044000CF92DF92EF92FF926B017C010E94F70145
:100450004B015C01C114D104E104F104F1F00E94EC
:10046000F701DC01CB0188199909AA09BB09883E6B
:100470009340A105B10570F321E0C21AD108E1084B
:10048000F10888EE880E83E0981EA11CB11CC114EF
:10049000D104E104F10419F7DDCFFF90EF90DF9074
:1004A000CF90BF90AF909F908F900895CF92DF92A2
:1004B000EF92FF920F931F93CF93DF936C017A011A
:1004C0008B01C0E0D0E0CE15DF0589F0D8016D9139
:1004D0008D01D601ED91FC910190F081E02DC601D6
:1004E0000995892B11F47E0102C02196ECCFC7013A
:1004F000DF91CF911F910F91FF90EF90DF90CF9000
:100500000895FC01918D828D981761F0828DDF0135
:10051000A80FB11D5D968C91928D9F5F9F73928FF6
:1005200090E008958FEF9FEF0895FC01918D828DEB
:10053000981731F0828DE80FF11D858D90E00895B8
:100540008FEF9FEF0895FC01918D228D892F90E010
:10055000805C9F4F821B91098F739927089582E5D4
:1005600091E00E94A30221E0892B09F420E0822F70
:100570000895FC01848DDF01A80FB11DA35ABF4F60
:100580002C91848D90E001968F739927848FA68992
:10059000B7892C93A089B1898C9180648C93938DB9
:1005A000848D981306C00288F389E02D80818F7DA9
:1005B00080830895EF92FF920F931F93CF93DF9361
:1005C000EC0181E0888F9B8D8C8D981305C0E889A4
:1005D000F989808185FD24C0F62E0B8D10E00F5F18
:1005E0001F4F0F731127E02E8C8DE8120CC00FB631
:1005F00007FCFACFE889F989808185FFF5CFCE0124
:100600000E94B902F1CF8B8DFE01E80FF11DE35A74
:10061000FF4FF0820B8FEA89FB898081806207C0DF
:10062000EE89FF896083E889F9898081806480830D
:1006300081E090E0DF91CF911F910F91FF90EF90BB
:100640000895CF93DF93EC01888D8823C9F0EA8960
:10065000FB89808185FD05C0A889B9898C9186FDBB
:100660000FC00FB607FCF5CF808185FFF2CFA889B8
:10067000B9898C9185FFEDCFCE010E94B902E7CFF9
:10068000DF91CF91089580E090E0892B29F00E94BE
:10069000AF0281110C9400000895CF93DF9300976F
:1006A00079F0FC0101900020E9F73197AF01481B78
:1006B000590BBC0182E591E00E945602EC0102C098
:1006C000C0E0D0E042E050E060E171E082E591E01E
:1006D0000E9456028C0F9D1FDF91CF91089560E01C
:1006E0008BE00E94100160E085E00E94100183E130
:1006F00091E00C944D0364E670E08BE00E94980159
:1007000064E670E085E00E94980161E089E00E9463
:10071000100160E088E00E94100161E087E00E9423
:10072000100160E086E00E94100189E191E00C94E4
:100730004D030E945A090F931F9360E083E10E94CA
:10074000100183E090E00197F1F761E083E10E94FE
:1007500010018BE490E00197F1F760E083E10E94E3
:100760001001ECEAF0E06491E8E9F0E0E491F0E0F7
:10077000EE0FFF1FE859FF4F8591949100E412E4BA
:100780002FE030E0462F0E94470561157105810575
:10079000910549F0DC01CB010196A11DB11DBC0101
:1007A000CD019F7003C060E070E0CB010E94BA08E9
:1007B00020E030E048E652E40E9412080E948408DB
:1007C000CB011F910F9108951F920F920FB60F92B8
:1007D00011242F933F938F939F93AF93BF93809157
:1007E0004A0190914B01A0914C01B0914D01309183
:1007F000490123E0230F2D3720F40196A11DB11DDF
:1008000005C026E8230F0296A11DB11D20934901C2
:1008100080934A0190934B01A0934C01B0934D01FA
:1008200080914E0190914F01A0915001B0915101E2
:100830000196A11DB11D80934E0190934F01A0938D
:100840005001B0935101BF91AF919F918F913F9112
:100850002F910F900FBE0F901F9018951F920F921F
:100860000FB60F9211242F933F934F935F936F9383
:100870007F938F939F93AF93BF93EF93FF9382E503
:1008800091E00E94B902FF91EF91BF91AF919F91CA
:100890008F917F916F915F914F913F912F910F9029
:1008A0000FBE0F901F9018951F920F920FB60F92C8
:1008B00011242F938F939F93EF93FF93E091620105
:1008C000F09163018081E0916801F091690182FDFE
:1008D00012C0908180916B018F5F8F7320916C01AA
:1008E000821751F0E0916B01F0E0EE5AFE4F958FC8
:1008F00080936B0101C08081FF91EF919F918F9157
:100900002F910F900FBE0F901F9018951F920F926E
:100910000FB60F9211242F933F934F935F936F93D2
:100920007F938F939F93AF93BF93EF93FF938091A8
:10093000420187FF05C010928500109284001BC001
:1009400020914201022E000C330B8091130290E0A3
:100950002817390784F480914201082E000C990B66
:10096000FC01EE0FFF1F8E0F9F1FFC01E151FE4F98
:10097000808186FD15C0809142018F5F8093420186
:1009800020914201022E000C330B8091130290E063
:1009900028173907C4F4809142018C3064F113C0E8
:1009A00080914201082E000C990BFC01EE0FFF1FF5
:1009B0008E0F9F1FFC01E151FE4F808160E08F731D
:1009C0000E941001D8CF80918400909185000496F8
:1009D00080349C4918F480E49CE905C0809184002F
:1009E00090918500049690938900809388008FEF02
:1009F000809342013BC0209184003091850080911A
:100A00004201082E000C990BFC01EE0FFF1F8E0F08
:100A10009F1FFC01E151FE4F81819281820F931F44
:100A2000909389008093880080914201082E000CE9
:100A3000990BFC01EE0FFF1F8E0F9F1FFC01E15170
:100A4000FE4F808186FF12C080914201082E000C6B
:100A5000990BFC01EE0FFF1F8E0F9F1FFC01E15150
:100A6000FE4F808161E08F730E941001FF91EF9132
:100A7000BF91AF919F918F917F916F915F914F91B6
:100A80003F912F910F900FBE0F901F901895CF920E
:100A9000DF92EF92FF920F931F93E82FF92F05C07B
:100AA000015011092109310961F1908196239417B0
:100AB000B9F305C0015011092109310911F19081E3
:100AC00096239413F7CFC12CD12CE12CF12C0AC022
:100AD0008FEFC81AD80AE80AF80A0C151D052E056A
:100AE0003F0579F080818623841791F36C2D7D2D4D
:100AF0008E2D9F2D1F910F91FF90EF90DF90CF9043
:100B0000089560E070E080E090E01F910F91FF9009
:100B1000EF90DF90CF9008951092550110925401FC
:100B200088EE93E0A0E0B0E08093560190935701E7
:100B3000A0935801B093590184E091E09093530140
:100B40008093520185EC90E090935F0180935E0169
:100B500084EC90E0909361018093600180EC90E0E0
:100B6000909363018093620181EC90E09093650122
:100B70008093640182EC90E090936701809366011A
:100B800086EC90E0909369018093680110926B016C
:100B900010926C0110926D0110926E0180911302FF
:100BA0008C30A0F491E0980F90931302809314027C
:100BB00090E0FC01EE0FFF1F8E0F9F1FFC01E15123
:100BC000FE4F88EB9BE09283818308958FEF8093A3
:100BD00014020895789484B5826084BD84B58160E0
:100BE00084BD85B5826085BD85B5816085BD8091F8
:100BF0006E00816080936E00109281008091810070
:100C00008260809381008091810081608093810067
:100C1000809180008160809380008091B100846029
:100C20008093B1008091B00081608093B00080918A
:100C30007A00846080937A0080917A008260809349
:100C40007A0080917A00816080937A0080917A00A6
:100C5000806880937A001092C100809114028C30D9
:100C600008F052C061E083E00E945C0180911402B0
:100C7000E82FF0E09F01220F331FE20FF31FE15135
:100C8000FE4F9081907C9360908392EF9093150239
:100C9000109216026CE00E9448099CE0899FB00106
:100CA000112440E050E09A01260F371FF901EE0FA2
:100CB000FF1F2E0F3F1FF901E151FE4F908196FD5E
:100CC00016C04F5F5F4F4C30510569F781110FC05F
:100CD0001092800082E08093810010928500109233
:100CE0008400B19A80916F00826080936F00E091E0
:100CF0001402F0E0CF01880F991FE80FF91FE151AE
:100D0000FE4F808180648083E0916201F0916301F5
:100D100082E08083E0915E01F0915F011082E091BA
:100D20006001F09161018FEC808310926A01E09183
:100D30006601F091670186E08083E0916401F091A3
:100D40006501808180618083E0916401F09165019B
:100D5000808188608083E0916401F09165018081E9
:100D600080688083E0916401F091650180818F7DCE
:100D7000808360E082E10E945C0161E083E10E9487
:100D80005C0161E089E00E945C0161E088E00E9412
:100D90005C0161E087E00E945C0161E086E00E9406
:100DA0005C0161E08BE00E945C0161E085E00E94F3
:100DB0005C010E946F038AE590E00E948C0064E66B
:100DC00070E080E090E00E941C020E949B039093E0
:100DD00048018093470145970CF0BCC00E946F0307
:100DE00064EF71E080E090E00E941C0285E090E0FA
:100DF0000E948C0068EE73E080E090E00E941C028C
:100E00000E949B03909346018093450164EF71E03B
:100E100080E090E00E941C028AE590E00E948C0035
:100E200068EE73E080E090E00E941C0284EB90E0AA
:100E30000E948C0068EE73E080E090E00E941C024B
:100E40000E949B03EC01909344018093430164EF63
:100E500071E080E090E00E941C028AE590E00E9430
:100E60008C0068EE73E080E090E00E941C028091AC
:100E7000450190914601C817D907ECF468EC70E081
:100E80008BE00E94980168EC70E085E00E94980178
:100E900060E089E00E94100161E088E00E9410019A
:100EA00061E087E00E94100160E086E00E9410018E
:100EB00085E291E01FC08C179D071CF568EC70E07F
:100EC0008BE00E94980168EC70E085E00E94980138
:100ED00061E089E00E94100160E088E00E9410015A
:100EE00060E087E00E94100161E086E00E9410014E
:100EF0008FE291E00E944D0364E670E080E090E0B4
:100F000026C0459714F065972CF564E670E08BE0F9
:100F10000E94980164E670E085E00E94980160E01C
:100F200089E00E94100161E088E00E94100160E009
:100F300087E00E94100161E086E00E94100188E3D2
:100F400091E00E944D0364EB70E080E090E00E942D
:100F50001C0202C00E947B030E9443032CCF052E7B
:100F600097FB1EF400940E94C60757FD07D00E940D
:100F7000E10707FC03D04EF40C94C607509540954A
:100F8000309521953F4F4F4F5F4F08959095809535
:100F9000709561957F4F8F4F9F4F08950E94030872
:100FA000A59F900DB49F900DA49F800D911D1124BD
:100FB0000895B7FF0C94CE070E94CE07821B930BB7
:100FC0000895A1E21A2EAA1BBB1BFD010DC0AA1F8A
:100FD000BB1FEE1FFF1FA217B307E407F50720F0A2
:100FE000A21BB30BE40BF50B661F771F881F991F1D
:100FF0001A9469F760957095809590959B01AC0166
:10100000BD01CF010895A29FB001B39FC001A39F6E
:10101000700D811D1124911DB29F700D811D112431
:10102000911D08950E9426080C940E090E9407093C
:1010300058F00E94000940F029F45F3F29F00C9419
:10104000F70851110C9442090C94FD080E941F09E5
:1010500068F39923B1F3552391F3951B550BBB27E7
:10106000AA2762177307840738F09F5F5F4F220F2C
:10107000331F441FAA1FA9F335D00E2E3AF0E0E823
:1010800032D091505040E695001CCAF72BD0FE2F6D
:1010900029D0660F771F881FBB1F26173707480701
:1010A000AB07B0E809F0BB0B802DBF01FF279358B9
:1010B0005F4F3AF09E3F510578F00C94F7080C947E
:1010C00042095F3FE4F3983ED4F3869577956795A0
:1010D000B795F7959F5FC9F7880F911D96958795EE
:1010E00097F90895E1E0660F771F881FBB1F62170D
:1010F00073078407BA0720F0621B730B840BBA0BCB
:10110000EE1F88F7E09508950E948B086894B1114E
:101110000C94420908950E94270988F09F5798F07F
:10112000B92F9927B751B0F0E1F0660F771F881FEC
:10113000991F1AF0BA95C9F714C0B13091F00E9406
:101140004109B1E008950C944109672F782F882751
:10115000B85F39F0B93FCCF3869577956795B3952D
:10116000D9F73EF490958095709561957F4F8F4F9C
:101170009F4F0895E89409C097FB3EF490958095A1
:10118000709561957F4F8F4F9F4F9923A9F0F92F4D
:1011900096E9BB279395F695879577956795B795CB
:1011A000F111F8CFFAF4BB0F11F460FF1BC06F5FB1
:1011B0007F4F8F4F9F4F16C0882311F096E911C0C3
:1011C000772321F09EE8872F762F05C0662371F0E4
:1011D00096E8862F70E060E02AF09A95660F771FF8
:1011E000881FDAF7880F9695879597F9089597F9EC
:1011F0009F6780E870E060E008959FEF80EC0895BD
:1012000000240A94161617061806090608950024E5
:101210000A9412161306140605060895092E03945F
:10122000000C11F4882352F0BB0F40F4BF2B11F4D3
:1012300060FF04C06F5F7F4F8F4F9F4F089557FD32
:101240009058440F551F59F05F3F71F04795880F34
:1012500097FB991F61F09F3F79F0879508951216CB
:1012600013061406551FF2CF4695F1DF08C0161677
:1012700017061806991FF1CF869571056105089428
:101280000895E894BB2766277727CB0197F908953F
:10129000991B79E004C0991F961708F0961B881FC8
:1012A0007A95C9F780950895EE0FFF1F0590F49188
:1012B000E02D099481E090E0F8940C945F09F89493
:0212C000FFCF5E
:1012C20000000000DA025602A30281029502210305
:1012D2000D0A0053746F702100676F20666F72777A
:1012E2006172642100676F20726967687421006708
:1012F2006F206C6566742100676F206261636B21E9
:021302000000E9
:00000001FF
