:100000000C9462000C948A000C948A000C948A0070
:100010000C948A000C948A000C948A000C948A0038
:100020000C948A000C948A000C948A000C94A0040E
:100030000C948A000C948A000C948A000C948A0018
:100040000C94FE030C948A000C946E040C944804E7
:100050000C948A000C948A000C948A000C948A00F8
:100060000C948A000C948A000000000024002700F1
:100070002A0000000000250028002B0000000000DE
:1000800023002600290004040404040404040202DA
:100090000202020203030303030301020408102007
:1000A0004080010204081020010204081020000012
:1000B0000008000201000003040700000000000027
:1000C0000000610511241FBECFEFD8E0DEBFCDBF19
:1000D00011E0A0E0B1E0E0E2F0E102C005900D9295
:1000E000A039B107D9F722E0A0E9B1E001C01D9223
:1000F000AD37B207E1F710E0C2E6D0E004C02197C7
:10010000FE010E940308C136D107C9F70E9401060B
:100110000C940E080C940000833081F028F4813098
:1001200099F08230A1F008958730A9F08830B9F0B5
:100130008430D1F4809180008F7D03C08091800055
:100140008F7780938000089584B58F7702C084B53F
:100150008F7D84BD08958091B0008F7703C080911A
:10016000B0008F7D8093B0000895CF93DF93282F48
:1001700030E0F901E255FF4F8491F901E656FF4F57
:10018000D491F901EA57FF4FC491CC2391F081112A
:100190000E948C00EC2FF0E0EE0FFF1FE458FF4FA1
:1001A000A591B491EC91ED2381E090E021F480E001
:1001B00002C080E090E0DF91CF9108951F93CF932C
:1001C000DF93282F30E0F901E255FF4F8491F901C8
:1001D000E656FF4FD491F901EA57FF4FC491CC2363
:1001E000C9F0162F81110E948C00EC2FF0E0EE0F69
:1001F000FF1FEE58FF4FA591B4918FB7F8941111DE
:1002000005C09C91ED2FE095E92302C0EC91ED2B08
:10021000EC938FBFDF91CF911F910895CF93DF9320
:1002200090E0FC01E656FF4F2491FC01EA57FF4F96
:100230008491882361F190E0880F991FFC01E859AF
:10024000FF4FC591D491FC01EE58FF4FA591B49199
:10025000611109C09FB7F894888120958223888313
:10026000EC912E230BC0623061F49FB7F894388173
:10027000822F809583238883EC912E2B2C939FBF14
:1002800006C08FB7F894E8812E2B28838FBFDF91AB
:10029000CF9108951F93CF93DF93182FEB0161E067
:1002A0000E940E01209711F460E004C0CF3FD105F9
:1002B00039F461E0812FDF91CF911F910C94DE0022
:1002C000E12FF0E0E255FF4FE491E330F9F048F41C
:1002D000E130B9F0E230A1F584B5806284BDC8BDDB
:1002E00034C0E730E9F0E83019F1E43049F58091A5
:1002F0008000806280938000D0938B00C0938A003E
:1003000024C084B5806884BDC7BD1FC080918000B3
:10031000806880938000D0938900C093880015C0C6
:100320008091B00080688093B000C093B3000DC08E
:100330008091B00080628093B000C093B40005C08B
:10034000C038D1050CF0B5CFAFCFDF91CF911F9161
:1003500008953FB7F8948091960190919701A091EC
:100360009801B091990126B5A89B05C02F3F19F0BF
:100370000196A11DB11D3FBFBA2FA92F982F882725
:10038000820F911DA11DB11DBC01CD0142E0660F80
:10039000771F881F991F4A95D1F708958F929F92D2
:1003A000AF92BF92CF92DF92EF92FF926B017C01EE
:1003B0000E94A9014B015C01C114D104E104F104C4
:1003C000F1F00E94A901DC01CB0188199909AA0961
:1003D000BB09883E9340A105B10570F321E0C21A24
:1003E000D108E108F10888EE880E83E0981EA11C70
:1003F000B11CC114D104E104F10419F7DDCFFF9061
:10040000EF90DF90CF90BF90AF909F908F90089526
:10041000CF92DF92EF92FF920F931F93CF93DF93D0
:100420006C017A018B01C0E0D0E0CE15DF0589F0C8
:10043000D8016D918D01D601ED91FC910190F08173
:10044000E02DC6010995892B11F47E0102C0219689
:10045000ECCFC701DF91CF911F910F91FF90EF90EB
:10046000DF90CF900895089580E090E00895FC011A
:10047000538D448D252F30E0842F90E0821B930B09
:10048000541710F0CF96089501970895FC01918DAF
:10049000828D981761F0828DDF01A80FB11D5D96E6
:1004A0008C91928D9F5F9F73928F90E008958FEF54
:1004B0009FEF0895FC01918D828D981731F0828D08
:1004C000E80FF11D858D90E008958FEF9FEF08955F
:1004D000FC01918D228D892F90E0805C9F4F821BC3
:1004E00091098F73992708958AE991E00E94680223
:1004F00021E0892B09F420E0822F0895FC01848DEE
:10050000DF01A80FB11DA35ABF4F2C91848D90E03D
:1005100001968F739927848FA689B7892C93A08918
:10052000B1898C9180648C93938D848D981306C0CF
:100530000288F389E02D80818F7D80830895EF927A
:10054000FF920F931F93CF93DF93EC0181E0888F8D
:100550009B8D8C8D981305C0E889F989808185FD74
:1005600024C0F62E0B8D10E00F5F1F4F0F73112765
:10057000E02E8C8DE8120CC00FB607FCFACFE8898C
:10058000F989808185FFF5CFCE010E947E02F1CFEF
:100590008B8DFE01E80FF11DE35AFF4FF0820B8FA8
:1005A000EA89FB898081806207C0EE89FF896083C8
:1005B000E889F98980818064808381E090E0DF911F
:1005C000CF911F910F91FF90EF900895CF93DF93FC
:1005D000EC01888D8823C9F0EA89FB89808185FD3B
:1005E00005C0A889B9898C9186FD0FC00FB607FC9C
:1005F000F5CF808185FFF2CFA889B9898C9185FFDD
:10060000EDCFCE010E947E02E7CFDF91CF9108951A
:1006100080E090E0892B29F00E94740281110C94F3
:1006200000000895009769F0FC0101900020E9F7AF
:100630003197AF01481B590BBC018AE991E00C943A
:10064000080280E090E00895CF93DF930E941203A8
:10065000EC0182E191E00E9412038C0F9D1FDF915B
:10066000CF910895CF93DF93CCE5D2E068EC70E0B2
:100670008F850E944A0168EC70E089890E944A01D6
:1006800061E08F810E94DE0060E089850E94DE00CB
:1006900060E08B850E94DE0061E08D850E94DE00B7
:1006A00085E191E0DF91CF910C942403CF93DF9308
:1006B000CCE5D2E068EC70E08F850E944A0168ECDE
:1006C00070E089890E944A0160E08F810E94DE000B
:1006D00061E089850E94DE0061E08B850E94DE007A
:1006E00060E08D850E94DE008EE191E0DF91CF9188
:1006F0000C9424038F929F92AF92BF92CF92DF927D
:10070000EF92FF920F931F93CF93DF93CDB7DEB796
:10071000A1970FB6F894DEBF0FBECDBF6C01990F45
:10072000EE08FF08F7FE31C0E0919A01F0919B01BD
:100730000190F081E02D6DE28AE991E009958C014C
:1007400022273327A9012C193D094E095F0919A257
:10075000CE0181967C019AE0892E912CA12CB12C9E
:10076000CA01B901A50194010E94D507605DF70196
:1007700062937F01211531054105510589F7CF01AC
:100780000E941203080F191F1EC0A701960119A28B
:100790008E010F5D1F4F8AE0C82ED12CE12CF12C69
:1007A000CA01B901A70196010E94D507605DF80151
:1007B00062938F01211531054105510589F7CF015C
:1007C0000E9412038C0182E191E00E941203800FCB
:1007D000911FA1960FB6F894DEBF0FBECDBFDF917B
:1007E000CF911F910F91FF90EF90DF90CF90BF902E
:1007F000AF909F908F9008950E9409081F920F92CA
:100800000FB60F9211242F933F938F939F93AF9323
:10081000BF938091920190919301A0919401B09126
:1008200095013091910123E0230F2D3720F401969B
:10083000A11DB11D05C026E8230F0296A11DB11D03
:10084000209391018093920190939301A09394013E
:10085000B09395018091960190919701A091980194
:10086000B09199010196A11DB11D809396019093BD
:100870009701A0939801B0939901BF91AF919F9177
:100880008F913F912F910F900FBE0F901F90189551
:100890001F920F920FB60F9211242F933F934F93F5
:1008A0005F936F937F938F939F93AF93BF93EF93D8
:1008B000FF938AE991E00E947E02FF91EF91BF9140
:1008C000AF919F918F917F916F915F914F913F91E8
:1008D0002F910F900FBE0F901F9018951F920F929F
:1008E0000FB60F9211242F938F939F93EF93FF9343
:1008F000E091AA01F091AB018081E091B001F0910B
:10090000B10182FD12C090818091B3018F5F8F731E
:100910002091B401821751F0E091B301F0E0E65666
:10092000FE4F958F8093B30101C08081FF91EF91BD
:100930009F918F912F910F900FBE0F901F90189540
:100940001F920F920FB60F9211242F933F934F9344
:100950005F936F937F938F939F93AF93BF93EF9327
:10096000FF938091900187FF05C01092850010923F
:1009700084001BC020919001022E000C330B80914B
:100980005B0290E02817390784F480919001082ECB
:10099000000C990BFC01EE0FFF1F8E0F9F1FFC0137
:1009A000E95CFD4F808186FD15C0809190018F5FCD
:1009B0008093900120919001022E000C330B8091C6
:1009C0005B0290E028173907C4F4809190018C30C5
:1009D00064F113C080919001082E000C990BFC016A
:1009E000EE0FFF1F8E0F9F1FFC01E95CFD4F808102
:1009F00060E08F730E94DE00D8CF809184009091D8
:100A00008500049680349C4918F480E49CE905C074
:100A10008091840090918500049690938900809342
:100A200088008FEF809390013BC02091840030912B
:100A3000850080919001082E000C990BFC01EE0FAF
:100A4000FF1F8E0F9F1FFC01E95CFD4F818192818A
:100A5000820F931F9093890080938800809190016A
:100A6000082E000C990BFC01EE0FFF1F8E0F9F1F2D
:100A7000FC01E95CFD4F808186FF12C080919001EE
:100A8000082E000C990BFC01EE0FFF1F8E0F9F1F0D
:100A9000FC01E95CFD4F808161E08F730E94DE0004
:100AA000FF91EF91BF91AF919F918F917F916F9146
:100AB0005F914F913F912F910F900FBE0F901F901C
:100AC000189510929D0110929C0188EE93E0A0E091
:100AD000B0E080939E0190939F01A093A001B093FA
:100AE000A10184E091E090939B0180939A0185ECB1
:100AF00090E09093A7018093A60184EC90E09093FE
:100B0000A9018093A80180EC90E09093AB018093C1
:100B1000AA0181EC90E09093AD018093AC0182EC4E
:100B200090E09093AF018093AE0186EC90E09093BB
:100B3000B1018093B0011092B3011092B4011092F0
:100B4000B5011092B60180915B028C30A0F491E067
:100B5000980F90935B0280935C0290E0FC01EE0F93
:100B6000FF1F8E0F9F1FFC01E95CFD4F88EB9BE090
:100B70009283818303C08FEF80935C0282E190E0D7
:100B80009093600280935F0283E190E09093620211
:100B90008093610289E090E0909364028093630205
:100BA00088E090E0909366028093650287E090E091
:100BB000909368028093670286E090E090936A02C7
:100BC000809369028BE090E090936C0280936B02BB
:100BD00085E090E090936E0280936D0280E590E056
:100BE0009093700280936F021092720210927102C1
:100BF0001092740210927302109276021092750293
:100C00000895789484B5826084BD84B5816084BD84
:100C100085B5826085BD85B5816085BD80916E009A
:100C2000816080936E0010928100809181008260CB
:100C30008093810080918100816080938100809108
:100C400080008160809380008091B10084608093F7
:100C5000B1008091B00081608093B00080917A00F3
:100C6000846080937A0080917A00826080937A0019
:100C700080917A00816080937A0080917A00806808
:100C800080937A001092C10080915C028C3008F051
:100C900052C061E083E00E940E0180915C02E82F67
:100CA000F0E09F01220F331FE20FF31FE95CFD4FBD
:100CB0009081907C9360908392EF90935D0210926C
:100CC0005E026CE00E94F7079CE0899FB00111244E
:100CD00040E050E09A01260F371FF901EE0FFF1F89
:100CE0002E0F3F1FF901E95CFD4F908196FD16C064
:100CF0004F5F5F4F4C30510569F781110FC0109263
:100D0000800082E080938100109285001092840020
:100D1000B19A80916F00826080936F00E0915C02D5
:100D2000F0E0CF01880F991FE80FF91FE95CFD4F34
:100D3000808180648083E091AA01F091AB0182E020
:100D40008083E091A601F091A7011082E091A801B3
:100D5000F091A9018FEC80831092B201E091AE0175
:100D6000F091AF0186E08083E091AC01F091AD019C
:100D7000808180618083E091AC01F091AD01808140
:100D800088608083E091AC01F091AD018081806842
:100D90008083E091AC01F091AD0180818F7D8083F3
:100DA00060E080915F020E940E0161E0809161022B
:100DB0000E940E0161E0809163020E940E0161E0D9
:100DC000809165020E940E0161E0809167020E949D
:100DD0000E0161E0809169020E940E0161E0809144
:100DE0006B020E940E0161E080916D020E940E0173
:100DF00060E080916B020E94DE0060E080916D02F5
:100E00000E94DE0088E291E00E9424038CE00E94B0
:100E1000B500909378028093770284E00E94B50039
:100E200090937A028093790282E00E94B5009093B9
:100E30007C0280937B022091790230917A02892B87
:100E4000A1F5232B09F46AC0809177029091780272
:100E5000892B09F463C08EE291E00E941203809115
:100E60007B0290917C020E947A030E94560364E602
:100E700070E080E090E00E94CE0184E00E94B50026
:100E800090937A028093790283E491E00E941203A6
:100E90008091790290917A020E947A03809179027E
:100EA00090917A02019709F37DC0232BB9F18091CB
:100EB000770290917802892B89F589E591E00E946B
:100EC000120380917702909178020E947A030E9427
:100ED000320364E670E080E090E00E94CE0184E09E
:100EE0000E94B50090937A028093790283E491E0A6
:100EF0000E9412038091790290917A020E947A03F3
:100F00008091790290917A02019709F04BC00E947A
:100F1000320362E070E080E090E0DFCF8DE691E0A8
:100F20000E94120380917702909178020E947A03C6
:100F30008091790290917A020E947A0380917B02DB
:100F400090917C020E947A0360916F02709170020E
:100F500080916B020E944A0160916F027091700251
:100F600080916D020E944A0161E0809163020E94BB
:100F7000DE0060E0809165020E94DE0061E0809109
:100F800067020E94DE0060E0809169020E94DE003C
:100F900084E891E00E94240364E670E080E090E041
:100FA0000E94CE010E94080331CFA1E21A2EAA1B93
:100FB000BB1BFD010DC0AA1FBB1FEE1FFF1FA21709
:100FC000B307E407F50720F0A21BB30BE40BF50B06
:100FD000661F771F881F991F1A9469F7609570958F
:100FE000809590959B01AC01BD01CF010895991B9F
:100FF00079E004C0991F961708F0961B881F7A9510
:10100000C9F780950895EE0FFF1F0590F491E02D2C
:10101000099481E090E0F8940C940E08F894FFCFC6
:10102000000000009F0208023702E6026802460242
:101030005A020D0A00476F206C6566742100676FC5
:10104000207269676874210053746F7021005472B4
:1010500061636B53656E736F725269676874206960
:10106000733D00547261636B53656E736F724365B9
:101070006E7465722069733D00547261636B5365D1
:101080006E736F724C6566742069733D00546865B9
:101090002074687265652076616C75657320617275
:1010A00065203D00676F20666F7277617264210072
:00000001FF
