:100000000C945D000C9485000C9485000C94850084
:100010000C9485000C9485000C9485000C9485004C
:100020000C9485000C9485000C9485000C94AF030F
:100030000C9485000C9485000C9485000C9485002C
:100040000C940D030C9485000C947D030C945703C1
:100050000C9485000C9485000C9485000C9485000C
:100060000C9485000C9485000000000024002700FB
:100070002A0000000000250028002B0004040404CE
:100080000404040402020202020203030303030342
:10009000010204081020408001020408102001021F
:1000A00004081020000000080002010000030407FB
:1000B0000000000000000000700411241FBECFEFFC
:1000C000D8E0DEBFCDBF11E0A0E0B1E0E6EBFCE0A0
:1000D00002C005900D92A832B107D9F722E0A8E23C
:1000E000B1E001C01D92AF30B207E1F710E0CDE5FD
:1000F000D0E004C02197FE010E944E06CC35D10706
:10010000C9F70E9410050C9459060C94000090E069
:10011000FC01EC55FF4F3491FC01E057FF4F249157
:10012000FC01E458FF4FE491EE2309F43BC0332374
:1001300039F1333091F038F43130A9F0323001F533
:1001400084B58F7D12C0373091F03830A1F0343053
:10015000B9F4809180008F7D03C0809180008F77FB
:10016000809380000DC084B58F7784BD09C08091D5
:10017000B0008F7703C08091B0008F7D8093B00076
:10018000F0E0EE0FFF1FEE58FF4FA591B4918FB72F
:10019000F894EC91611103C020952E2301C02E2B01
:1001A0002C938FBF0895CF93DF9390E0FC01E0572D
:1001B000FF4F2491FC01E458FF4F8491882361F1A3
:1001C00090E0880F991FFC01E859FF4FC591D49129
:1001D000FC01EE58FF4FA591B491611109C09FB782
:1001E000F8948881209582238883EC912E230BC07C
:1001F000623061F49FB7F8943881822F8095832311
:100200008883EC912E2B2C939FBF06C08FB7F89458
:10021000E8812E2B28838FBFDF91CF9108951F9304
:10022000CF93DF93182FEB0161E00E94D30020975A
:1002300011F460E004C0CF3FD10539F461E0812FB3
:10024000DF91CF911F910C948700E12FF0E0EC55E6
:10025000FF4FE491E330F9F048F4E130B9F0E230D7
:10026000A1F584B5806284BDC8BD34C0E730E9F033
:10027000E83019F1E43049F5809180008062809384
:100280008000D0938B00C0938A0024C084B580681E
:1002900084BDC7BD1FC080918000806880938000AE
:1002A000D0938900C093880015C08091B000806809
:1002B0008093B000C093B3000DC08091B000806205
:1002C0008093B000C093B40005C0C038D1050CF0D5
:1002D000B5CFAFCFDF91CF911F9108953FB7F8947D
:1002E00080912E0190912F01A0913001B0913101A8
:1002F00026B5A89B05C02F3F19F00196A11DB11D81
:100300003FBFBA2FA92F982F8827820F911DA11DBB
:10031000B11DBC01CD0142E0660F771F881F991FF8
:100320004A95D1F708958F929F92AF92BF92CF9244
:10033000DF92EF92FF926B017C010E946E014B01F4
:100340005C01C114D104E104F104F1F00E946E01DA
:10035000DC01CB0188199909AA09BB09883E9340A1
:10036000A105B10570F321E0C21AD108E108F10836
:1003700088EE880E83E0981EA11CB11CC114D10424
:10038000E104F10419F7DDCFFF90EF90DF90CF90FB
:10039000BF90AF909F908F900895CF92DF92EF9291
:1003A000FF920F931F93CF93DF936C017A018B0120
:1003B000C0E0D0E0CE15DF0589F0D8016D918D0148
:1003C000D601ED91FC910190F081E02DC6010995D7
:1003D000892B11F47E0102C02196ECCFC701DF9179
:1003E000CF911F910F91FF90EF90DF90CF900895E4
:1003F000089580E090E00895FC01538D448D252FF1
:1004000030E0842F90E0821B930B541710F0CF96AE
:10041000089501970895FC01918D828D981761F0E0
:10042000828DDF01A80FB11D5D968C91928D9F5F2B
:100430009F73928F90E008958FEF9FEF0895FC01D6
:10044000918D828D981731F0828DE80FF11D858D89
:1004500090E008958FEF9FEF0895FC01918D228D1C
:10046000892F90E0805C9F4F821B91098F739927A1
:10047000089582E391E00E942D0221E0892B09F486
:1004800020E0822F0895FC01848DDF01A80FB11DAB
:10049000A35ABF4F2C91848D90E001968F739927BA
:1004A000848FA689B7892C93A089B1898C918064A7
:1004B0008C93938D848D981306C00288F389E02D68
:1004C00080818F7D80830895EF92FF920F931F9319
:1004D000CF93DF93EC0181E0888F9B8D8C8D9813F7
:1004E00005C0E889F989808185FD24C0F62E0B8D31
:1004F00010E00F5F1F4F0F731127E02E8C8DE81255
:100500000CC00FB607FCFACFE889F989808185FF16
:10051000F5CFCE010E944302F1CF8B8DFE01E80F93
:10052000F11DE35AFF4FF0820B8FEA89FB8980812E
:10053000806207C0EE89FF896083E889F98980813C
:100540008064808381E090E0DF91CF911F910F91D3
:10055000FF90EF900895CF93DF93EC01888D88236F
:10056000C9F0EA89FB89808185FD05C0A889B98920
:100570008C9186FD0FC00FB607FCF5CF808185FFFB
:10058000F2CFA889B9898C9185FFEDCFCE010E9469
:100590004302E7CFDF91CF91089580E090E0892B6F
:1005A00029F00E94390281110C9400000895CF9324
:1005B000DF93009779F0FC0101900020E9F7319773
:1005C000AF01481B590BBC0182E391E00E94CD01B1
:1005D000EC0102C0C0E0D0E042E050E062E171E036
:1005E00082E391E00E94CD018C0F9D1FDF91CF919E
:1005F0000895CF93DF93C4EFD1E060E08C850E9433
:10060000870060E08E850E94870085E191E0DF91A0
:10061000CF910C94D7020E9454061F920F920FB6EE
:100620000F9211242F933F938F939F93AF93BF9378
:1006300080912A0190912B01A0912C01B0912D0164
:100640003091290123E0230F2D3720F40196A11DBD
:10065000B11D05C026E8230F0296A11DB11D2093F0
:10066000290180932A0190932B01A0932C01B09330
:100670002D0180912E0190912F01A0913001B09118
:1006800031010196A11DB11D80932E0190932F0180
:10069000A0933001B0933101BF91AF919F918F91A1
:1006A0003F912F910F900FBE0F901F9018951F92A2
:1006B0000F920FB60F9211242F933F934F935F9396
:1006C0006F937F938F939F93AF93BF93EF93FF931A
:1006D00082E391E00E944302FF91EF91BF91AF91BD
:1006E0009F918F917F916F915F914F913F912F914A
:1006F0000F900FBE0F901F9018951F920F920FB67C
:100700000F9211242F938F939F93EF93FF93E09178
:100710004201F09143018081E0914801F09149014B
:1007200082FD12C0908180914B018F5F8F73209169
:100730004C01821751F0E0914B01F0E0EE5CFE4F6E
:10074000958F80934B0101C08081FF91EF919F9124
:100750008F912F910F900FBE0F901F9018951F92A1
:100760000F920FB60F9211242F933F934F935F93E5
:100770006F937F938F939F93AF93BF93EF93FF9369
:100780008091280187FF05C0109285001092840097
:100790001BC020912801022E000C330B8091F30125
:1007A00090E02817390784F480912801082E000C66
:1007B000990BFC01EE0FFF1F8E0F9F1FFC01E153F1
:1007C000FE4F808186FD15C0809128018F5F809348
:1007D000280120912801022E000C330B8091F30197
:1007E00090E028173907C4F4809128018C3064F117
:1007F00013C080912801082E000C990BFC01EE0F0C
:10080000FF1F8E0F9F1FFC01E153FE4F808160E0B0
:100810008F730E948700D8CF8091840090918500CB
:10082000049680349C4918F480E49CE905C08091CA
:1008300084009091850004969093890080938800AD
:100840008FEF809328013BC0209184003091850078
:1008500080912801082E000C990BFC01EE0FFF1F60
:100860008E0F9F1FFC01E153FE4F81819281820F09
:10087000931F909389008093880080912801082E0F
:10088000000C990BFC01EE0FFF1F8E0F9F1FFC0148
:10089000E153FE4F808186FF12C080912801082E0F
:1008A000000C990BFC01EE0FFF1F8E0F9F1FFC0128
:1008B000E153FE4F808161E08F730E948700FF91BA
:1008C000EF91BF91AF919F918F917F916F915F91C8
:1008D0004F913F912F910F900FBE0F901F90189541
:1008E000109235011092340188EE93E0A0E0B0E060
:1008F0008093360190933701A0933801B09339016A
:1009000084E091E0909333018093320185EC90E094
:1009100090933F0180933E0184EC90E090934101DD
:100920008093400180EC90E09093430180934201DA
:1009300081EC90E0909345018093440182EC90E03B
:10094000909347018093460186EC90E09093490193
:100950008093480110924B0110924C0110924D016E
:1009600010924E0182E190E09093F5018093F401A2
:1009700083E190E09093F7018093F60189E090E0A5
:100980009093F9018093F80188E090E09093FB0147
:100990008093FA0187E090E09093FD018093FC0141
:1009A00086E090E09093FF018093FE018BE090E061
:1009B000909301028093000285E090E090930302FF
:1009C0008093020282E390E09093050280930402F8
:1009D0001092070210920602109209021092080269
:1009E00010920B0210920A028091F3018C30A0F455
:1009F00091E0980F9093F30180930C0290E0FC013A
:100A0000EE0FFF1F8E0F9F1FFC01E153FE4F88EB7F
:100A10009BE09283818308958FEF80930C02089569
:100A2000789484B5826084BD84B5816084BD85B5C9
:100A3000826085BD85B5816085BD80916E008160D5
:100A400080936E001092810080918100826080937B
:100A5000810080918100816080938100809180007D
:100A60008160809380008091B10084608093B100A8
:100A70008091B00081608093B00080917A008460A2
:100A800080937A0080917A00826080937A008091CE
:100A90007A00816080937A0080917A0080688093E8
:100AA0007A001092C10080910C028C3008F052C084
:100AB00061E083E00E94D300E0910C02AE2FB0E031
:100AC000CD01880F991FA80FB91FA153BE4F8C915C
:100AD000807C83608C9382EF80930D0210920E02D3
:100AE0008E2F6CE00E9442069CE0899FB001112489
:100AF00040E050E09A01260F371FD901AA0FBB1F13
:100B00002A0F3B1FD901A153BE4F9C9196FD16C0E1
:100B10004F5F5F4F4C30510569F781110FC0109244
:100B2000800082E080938100109285001092840002
:100B3000B19A80916F00826080936F008E2F90E059
:100B4000FC01EE0FFF1FE80FF91FE153FE4F8081FC
:100B500080648083E0914201F091430182E08083D0
:100B6000E0913E01F0913F011082E0914001F0914F
:100B700041018FEC808310924A01E0914601F0918F
:100B8000470186E08083E0914401F0914501808136
:100B900080618083E0914401F0914501808188600B
:100BA0008083E0914401F0914501808180688083D9
:100BB000E0914401F091450180818F7D808360E068
:100BC0008091F4010E94D30061E08091F6010E94BF
:100BD000D30061E08091F8010E94D30061E0809130
:100BE000FA010E94D30061E08091FC010E94D300D1
:100BF00061E08091FE010E94D30061E080910002DB
:100C00000E94D30061E0809102020E94D3000E9402
:100C1000F9026091040270910502809100020E9425
:100C20000F016091040270910502809102020E94FE
:100C30000F0161E08091F8010E94870060E08091DF
:100C4000FA010E94870061E08091FC010E94870008
:100C500060E08091FE010E9487008BE191E00E949C
:100C6000D70268EE73E080E090E00E9493010E945A
:100C7000F90260E177E280E090E00E9493010E9437
:100C8000CD02C7CF991B79E004C0991F961708F0D1
:100C9000961B881F7A95C9F780950895EE0FFF1F60
:100CA0000590F491E02D099481E090E0F8940C9483
:060CB0005906F894FFCF85
:100CB600000000006402CD01FC01AB022D020B0214
:100CC6001F020D0A0053746F702100676F20666F54
:080CD6007277617264210000D5
:00000001FF
