:100000000C9462000C948A000C948A000C948A0070
:100010000C948A000C948A000C948A000C948A0038
:100020000C948A000C948A000C948A000C943F0370
:100030000C948A000C948A000C948A000C948A0018
:100040000C949D020C948A000C940D030C94E7020E
:100050000C948A000C948A000C948A000C948A00F8
:100060000C948A000C948A000000000024002700F1
:100070002A0000000000250028002B0000000000DE
:1000800023002600290004040404040404040202DA
:100090000202020203030303030301020408102007
:1000A0004080010204081020010204081020000012
:1000B0000008000201000003040700000000000027
:1000C0000000000411241FBECFEFD8E0DEBFCDBF7B
:1000D00011E0A0E0B1E0EAE2FCE002C005900D9280
:1000E000AC34B107D9F722E0ACE4B1E001C01D9215
:1000F000A933B207E1F710E0C2E6D0E004C02197CF
:10010000FE010E940806C136D107C9F70E94A0046B
:100110000C9413060C940000833081F028F4813095
:1001200099F08230A1F008958730A9F08830B9F0B5
:100130008430D1F4809180008F7D03C08091800055
:100140008F7780938000089584B58F7702C084B53F
:100150008F7D84BD08958091B0008F7703C080911A
:10016000B0008F7D8093B0000895CF93DF93282F48
:1001700030E0F901E255FF4F8491F901E656FF4F57
:10018000D491F901EA57FF4FC491CC2391F081112A
:100190000E948C00EC2FF0E0EE0FFF1FE458FF4FA1
:1001A000A591B491EC91ED2381E090E021F480E001
:1001B00002C080E090E0DF91CF9108951F93CF932C
:1001C000DF93282F30E0F901E255FF4F8491F901C8
:1001D000E656FF4FD491F901EA57FF4FC491CC2363
:1001E000C9F0162F81110E948C00EC2FF0E0EE0F69
:1001F000FF1FEE58FF4FA591B4918FB7F8941111DE
:1002000005C09C91ED2FE095E92302C0EC91ED2B08
:10021000EC938FBFDF91CF911F910895CF93DF9320
:1002200090E0FC01E656FF4F2491FC01EA57FF4F96
:100230008491882361F190E0880F991FFC01E859AF
:10024000FF4FC591D491FC01EE58FF4FA591B49199
:10025000611109C09FB7F894888120958223888313
:10026000EC912E230BC0623061F49FB7F894388173
:10027000822F809583238883EC912E2B2C939FBF14
:1002800006C08FB7F894E8812E2B28838FBFDF91AB
:10029000CF9108953FB7F894809152019091530106
:1002A000A0915401B091550126B5A89B05C02F3FE0
:1002B00019F00196A11DB11D3FBFBA2FA92F982F8C
:1002C0008827820F911DA11DB11DBC01CD0142E007
:1002D000660F771F881F991F4A95D1F70895CF920F
:1002E000DF92EF92FF920F931F93CF93DF936C01F6
:1002F0007A018B01C0E0D0E0CE15DF0589F0D8018E
:100300006D918D01D601ED91FC910190F081E02D70
:10031000C6010995892B11F47E0102C02196ECCF0C
:10032000C701DF91CF911F910F91FF90EF90DF9068
:10033000CF900895089580E090E00895FC01538DDA
:10034000448D252F30E0842F90E0821B930B5417AF
:1003500010F0CF96089501970895FC01918D828D3C
:10036000981761F0828DDF01A80FB11D5D968C9109
:10037000928D9F5F9F73928F90E008958FEF9FEF14
:100380000895FC01918D828D981731F0828DE80FD0
:10039000F11D858D90E008958FEF9FEF0895FC018A
:1003A000918D228D892F90E0805C9F4F821B910957
:1003B0008F739927089586E591E00E94CF0121E08F
:1003C000892B09F420E0822F0895FC01848DDF0140
:1003D000A80FB11DA35ABF4F2C91848D90E00196B8
:1003E0008F739927848FA689B7892C93A089B189A7
:1003F0008C9180648C93938D848D981306C00288B1
:10040000F389E02D80818F7D80830895EF92FF92A4
:100410000F931F93CF93DF93EC0181E0888F9B8D27
:100420008C8D981305C0E889F989808185FD24C0E9
:10043000F62E0B8D10E00F5F1F4F0F731127E02E6C
:100440008C8DE8120CC00FB607FCFACFE889F98949
:10045000808185FFF5CFCE010E94E501F1CF8B8D24
:10046000FE01E80FF11DE35AFF4FF0820B8FEA897E
:10047000FB898081806207C0EE89FF896083E889FB
:10048000F98980818064808381E090E0DF91CF9161
:100490001F910F91FF90EF900895CF93DF93EC01A0
:1004A000888D8823C9F0EA89FB89808185FD05C094
:1004B000A889B9898C9186FD0FC00FB607FCF5CFCE
:1004C000808185FFF2CFA889B9898C9185FFEDCF16
:1004D000CE010E94E501E7CFDF91CF91089580E042
:1004E00090E0892B29F00E94DB0181110C9400001F
:1004F0000895CF93DF93009779F0FC0101900020DD
:10050000E9F73197AF01481B590BBC0186E591E033
:100510000E946F01EC0102C0C0E0D0E042E050E078
:1005200062E171E086E591E00E946F018C0F9D1FF2
:10053000DF91CF9108950E940E061F920F920FB681
:100540000F9211242F933F938F939F93AF93BF9359
:1005500080914E0190914F01A0915001B0915101B5
:1005600030914D0123E0230F2D3720F40196A11D7A
:10057000B11D05C026E8230F0296A11DB11D2093D1
:100580004D0180934E0190934F01A0935001B09381
:1005900051018091520190915301A0915401B09169
:1005A00055010196A11DB11D8093520190935301F5
:1005B000A0935401B0935501BF91AF919F918F913A
:1005C0003F912F910F900FBE0F901F9018951F9283
:1005D0000F920FB60F9211242F933F934F935F9377
:1005E0006F937F938F939F93AF93BF93EF93FF93FB
:1005F00086E591E00E94E501FF91EF91BF91AF91F7
:100600009F918F917F916F915F914F913F912F912A
:100610000F900FBE0F901F9018951F920F920FB65C
:100620000F9211242F938F939F93EF93FF93E09159
:100630006601F09167018081E0916C01F0916D019C
:1006400082FD12C0908180916F018F5F8F73209126
:100650007001821751F0E0916F01F0E0EA5AFE4F0D
:10066000958F80936F0101C08081FF91EF919F91E1
:100670008F912F910F900FBE0F901F9018951F9282
:100680000F920FB60F9211242F933F934F935F93C6
:100690006F937F938F939F93AF93BF93EF93FF934A
:1006A00080914C0187FF05C0109285001092840054
:1006B0001BC020914C01022E000C330B80911702BD
:1006C00090E02817390784F480914C01082E000C23
:1006D000990BFC01EE0FFF1F8E0F9F1FFC01ED50C9
:1006E000FE4F808186FD15C080914C018F5F809305
:1006F0004C0120914C01022E000C330B809117020B
:1007000090E028173907C4F480914C018C3064F1D3
:1007100013C080914C01082E000C990BFC01EE0FC8
:10072000FF1F8E0F9F1FFC01ED50FE4F808160E088
:100730008F730E94DE00D8CF809184009091850055
:10074000049680349C4918F480E49CE905C08091AB
:10075000840090918500049690938900809388008E
:100760008FEF80934C013BC0209184003091850035
:1007700080914C01082E000C990BFC01EE0FFF1F1D
:100780008E0F9F1FFC01ED50FE4F81819281820FE1
:10079000931F909389008093880080914C01082ECC
:1007A000000C990BFC01EE0FFF1F8E0F9F1FFC0129
:1007B000ED50FE4F808186FF12C080914C01082EC3
:1007C000000C990BFC01EE0FFF1F8E0F9F1FFC0109
:1007D000ED50FE4F808161E08F730E94DE00FF913B
:1007E000EF91BF91AF919F918F917F916F915F91A9
:1007F0004F913F912F910F900FBE0F901F90189522
:10080000109259011092580188EE93E0A0E0B0E0F8
:1008100080935A0190935B01A0935C01B0935D01BA
:1008200084E091E0909357018093560185EC90E02D
:10083000909363018093620184EC90E09093650152
:100840008093640180EC90E090936701809366014F
:1008500081EC90E0909369018093680182EC90E0D4
:1008600090936B0180936A0186EC90E090936D0108
:1008700080936C0110926F011092700110927101BF
:1008800010927201809117028C30A0F491E0980FC1
:10089000909317028093180290E0FC01EE0FFF1F67
:1008A0008E0F9F1FFC01ED50FE4F88EB9BE0928363
:1008B000818303C08FEF8093180282E190E09093D0
:1008C0001C0280931B0283E190E090931E028093B0
:1008D0001D0289E090E09093200280931F0288E03F
:1008E00090E0909322028093210287E090E0909321
:1008F00024028093230286E090E090932602809366
:1009000025028BE090E0909328028093270285E0F7
:1009100090E090932A028093290284E690E09093DD
:100920002C0280932B0210922E0210922D02109214
:10093000300210922F02109232021092310208956A
:10094000789484B5826084BD84B5816084BD85B5AA
:10095000826085BD85B5816085BD80916E008160B6
:1009600080936E001092810080918100826080935C
:10097000810080918100816080938100809180005E
:100980008160809380008091B10084608093B10089
:100990008091B00081608093B00080917A00846083
:1009A00080937A0080917A00826080937A008091AF
:1009B0007A00816080937A0080917A0080688093C9
:1009C0007A001092C100809118028C3008F052C059
:1009D00061E083E00E940E0180911802E82FF0E0B0
:1009E0009F01220F331FE20FF31FED50FE4F908146
:1009F000907C9360908392EF9093190210921A0268
:100A00006CE00E94FC052CE0829FB001112440E0C4
:100A100050E09A01260F371FF901EE0FFF1F2E0F2E
:100A20003F1FF901ED50FE4F908196FD16C04F5FBC
:100A30005F4F4C30510569F781110FC01092800053
:100A400082E0809381001092850010928400B19A18
:100A500080916F00826080936F00E0911802F0E057
:100A6000CF01880F991FE80FF91FED50FE4F8081CD
:100A700080648083E0916601F091670182E0808369
:100A8000E0916201F09163011082E0916401F091C4
:100A900065018FEC808310926E01E0916A01F09104
:100AA0006B0186E08083E0916801F09169018081AB
:100AB00080618083E0916801F091690180818860A4
:100AC0008083E0916801F091690180818068808372
:100AD000E0916801F091690180818F7D808360E001
:100AE00080911B020E940E0161E080911D020E9414
:100AF0000E0161E080911F020E940E0161E0809171
:100B000021020E940E0161E0809123020E940E01E9
:100B100061E0809125020E940E0161E08091270230
:100B20000E940E0161E0809129020E940E0160E0A6
:100B3000809127020E94DE0060E0809129020E94DD
:100B4000DE0085E191E00E9479028CE00E94B50010
:100B5000909334028093330284E00E94B500909316
:100B600036028093350282E00E94B50090933802ED
:100B7000809337028091330290913402855E9E4FBC
:100B80000E9479028091350290913602855D9E4FD8
:100B90000E9479028091370290913802855C9E4FC5
:100BA0000E9479020E944A014B015C0180EDC82E2F
:100BB00087E0D82EE12CF12C0E944A01DC01CB0108
:100BC00088199909AA09BB09883E9340A105B10576
:100BD00058F081E0C81AD108E108F10898EE890EB2
:100BE00093E0991EA11CB11CC114D104E104F104CD
:100BF00019F70E946F02A9CF991B79E004C0991FD1
:100C0000961708F0961B881F7A95C9F78095089566
:100C1000EE0FFF1F0590F491E02D099481E090E024
:0A0C2000F8940C941306F894FFCF2B
:100C2A000000000006026F019E014D02CF01AD01D6
:100C3A00C1010D0A0053746F702100547261636B15
:100C4A0053656E736F7231203D2000547261636B7D
:100C5A0053656E736F7232203D2000547261636B6C
:0C0C6A0053656E736F7233203D20000054
:00000001FF
